:060000000A128A110E280D
:10000800FE00030EF0000A08F1007F08F2000A1251
:100018008A114C290A128A111128F801F901FA01EA
:1000280083120313D0018313A0308400CA300A124C
:100038008A11F7230A128A1183010A128A11E22906
:1000480083120313AF002D08840083130008840073
:100058000A128A11AE230A128A11253A031D35287D
:10006800362834290130FF002D0884007F088007D6
:1000780083160313C001C1010310003003180130B7
:1000880083120313D000FF3083160313C200FF301E
:10009800C300831203132D0884000008B400340839
:1000A80084000A128A11AE230A128A11B500662842
:1000B8000130FF007F08B4076E286930B5006E284C
:1000C800B5016E2835086C3A03195C28193A0319EA
:1000D80061286428340884000A128A11AE230A129F
:1000E8008A11753A031D79287A282A29A3282E0807
:1000F80084000008FF00023080077F0884000008A1
:10010800F600840A0008F7007608B0007708B10006
:10011800B201B301AB282E0884000008FF000430A8
:1001280080077F0884000008B000840A0008B10036
:10013800840A0008B200840A0008B300AB28350816
:10014800693A03197B28053A03198F28AB282D082B
:1001580084003408013E80001F292030B50001309A
:10016800B5023508A03E84000030A3000030A2008C
:100178000030A1000A30A0003308A7003208A6000A
:100188003108A5003008A4000A128A1118230A129F
:100198008A11831203132008303E83138000003035
:1001A800A3000030A2000030A1000A30A0003308EC
:1001B800A7003208A6003108A5003008A4000A12DA
:1001C8008A1156220A128A11831203132308B300D4
:1001D8002208B2002108B1002008B0003308320418
:1001E800310430040319F928FA2818293508031DA1
:1001F800FE28FF28B32818293508A03E8400831359
:100208000008F600F7017608F3007708F4002F08D5
:10021800F5000A128A11BE220A128A110130FF0063
:100228007F0883120313B50720303506031D1D29E7
:100238001E2900294B29340884000A128A11AE238A
:100248000A128A11753A0319B1282A290130FF00C8
:10025800831203132D0884007F08831380074B291A
:100268002D088400000884000A128A11AE230A129D
:100278008A11F600F7017608F3007708F4002F08D2
:10028800F5000A128A11BE220A128A112A290800C8
:10029800831203138C1C51295229D9298C1001303F
:1002A800FF007F08FA070130F8070318F90A003041
:1002B800F907013083160313C8070318C90A003069
:1002C800C9070130C6070318C70A0030C70701303D
:1002D800C4070318C50A0030C50764307A02031C36
:1002E8007629772984298312031306080139FF0028
:1002F8000130FF0606087F06FE397F068600FA01F0
:1003080000307902C83003197802031C8C298D2922
:100318009B298312060C0139FF000130FF06FF0DEF
:1003280006087F06FD397F068600F801F9010130CD
:100338008316031349022C3003194802031CA5290C
:10034800A629BA2983120313060CFF007F0C013972
:10035800FF000130FF06FF0DFF0D06087F06FB3981
:100368007F06860083160313C801C90101304702BE
:10037800903003194602031CC229C329D9298312C4
:100388000313060CFF00FF0C7F0C0139FF0001303E
:10039800FF06FF0DFF0DFF0D06087F06F7397F06E4
:1003A800860083160313C601C7017208FF0071088F
:1003B8008A00700E8300FE0E7E0E0900831603135A
:1003C8000610861006118611831203130610861074
:1003D80006118611033092047C30831603139200B1
:1003E8008312031391011215831603138C140B1730
:1003F8008B170A128A11DE230A128A11003083161B
:100408000313ED000030EC000030EB000030EA0090
:10041800013083160313EA07003003180130EB0795
:10042800003003180130EC07003003180130ED07E5
:10043800013083120313BA00831603136D08831265
:100448000313BE00831603136C0883120313BD0045
:10045800831603136B0883120313BC00831603135C
:100468006A0883120313BB00CA300A128A118F2349
:100478000A128A11CA300A128A11C7230A128A116B
:100488000B3083120313CF002630CE005D30CD0031
:10049800CD0B4C2ACE0B4C2ACF0B4C2A0C2A0A1215
:1004A8008A110E28003083120313AB000030AA0013
:1004B8000030A9000030A8002308220421042004E9
:1004C8000319672A682AB52AAC01AC0A782A0130D0
:1004D800F3000310A00DA10DA20DA30DF30B6D2ABF
:1004E8000130FF007F08AC07A31F7B2A7C2A6B2AF8
:1004F8000130F3000310A80DA90DAA0DAB0DF30BE5
:100508007E2A23082702031D932A22082602031D98
:10051800932A21082502031D932A20082402031C7C
:10052800962A972AA62A2008A4022108031C210F2C
:10053800A5022208031C220FA6022308031C230F6E
:10054800A702281401300310A30CA20CA10CA00CC4
:10055800FF3E031DA72A0130AC02031DB42AB52AA9
:100568007C2A2B08A3002A08A2002908A100280831
:10057800A000080075080319C22AC32AC82A7508EA
:10058800031DC72AC82ACF2A73080A128A11FF2313
:100598000A128A11172B7508093E84008313000874
:1005A80083120313A000840A0008A1002008210474
:1005B8000319DF2AE02AFE2A7508093E840000088C
:1005C800A000840A0008A1007508023E8400000803
:1005D800A200840A0008A3002308803AA400210886
:1005E800803A2402031DFA2A200822020318FD2A51
:1005F800FE2A172B7508023E840083130008831215
:100608000313A0007508840000082007A100210832
:100618008400730880007508023E8400013080075A
:10062800840A0318800A080083120313230822048B
:10063800210420040319212B222B652BF401F40A31
:10064800322B0130F3000310A00DA10DA20DA30D54
:10065800F30B272B0130FF007F08F407A31F352B6E
:10066800362B252B23082702031D442B220826029C
:10067800031D442B21082502031D442B20082402B6
:10068800031C472B482B562B2008A4022108031CC7
:10069800210FA5022208031C220FA6022308031C0F
:1006A800230FA70201300310A30CA20CA10CA00C6D
:1006B800FF3E031D572B0130F402031D642B652BED
:1006C800362B2708A3002608A2002508A100240825
:1006D800A000080083120313B8003608B9007E2B67
:1006E8003930AD003708AE0038080A128A112420C4
:1006F8000A128A1183120313390884000A128A1114
:10070800AE230A128A11003A031D8B2B8C2B742BF3
:10071800B601B701080083120313C0003B30C100C3
:100728004008C200C401C501CB01CC013A08B6009B
:100738004130B70042300A128A116E230A128A1118
:100748008312031344084007BF003F088400831343
:100758008001080003308A000408840A82070034F4
:100768004C344F344F3450342034453458344534A5
:100778004334553454344534203425346C3475347A
:100788000D340A340034F400D52B740884000008B2
:100798000A128A11ED230A128A110130FF007F081C
:1007A800F4077408840083130008031DDC2BDD2B79
:1007B800C92B080083160313071387171812181577
:1007C800333099008312031398178316031398166E
:1007D8000800F300831203130C1EF32BF42BEE2BEB
:1007E80073089900080064008001840A040603194C
:0807F80000340406F82B080090
:02400E00723FFF
:00000001FF
