:060000000A128A11FC2F18
:100F7200FF30831603138500860183120313860153
:100F82008316031381160112811583120313810143
:100F9200F20183120313010872060319D12FD22F13
:100FA200EF2F0108F20005300102031CD92FDA2FBE
:100FB200DC2F0614DD2F06100A300102031CE22F7B
:100FC200E32FE52F8614E62F86100F300102031C53
:100FD200EB2FEC2FEE2F0615EF2F06110D30F1003F
:100FE200FB30F000F00BF32FF10BF32FF82FCA2F89
:0E0FF2000A128A11002883010A128A11B92FEF
:02400E00723FFF
:00000001FF
