:100000000A128A11FC2FFF1B0D2883137F188317F8
:100010000008840A0319FF0A080000308A00040857
:10002000840A8207003450346C346534613473348C
:100030006534203477347234693474346534203450
:1000400079346F347534723420346D3465347334DC
:100050007334613467346534203461346E3464340D
:10006000203470347234653473347334203465341E
:100070006E3474346534723420340A3400342A34D3
:100080002A342A342A342A342A342A342A342A3480
:100090002A342A342A342A342A342A342A342A3470
:1000A0002A342A342A342A342A342A342A342A3460
:1000B0002A342A342A342A342A342A342A342A3450
:1000C0002A342A3420340D340A34003459346F343D
:1000D0007534723420346D34653473347334613460
:1000E000673465342034693473343A3420340A3444
:0200F0000034DA
:100DBC0000308316031398180130080083120313B4
:100DCC008C1EE92EEA2EE42E1A0808008316031353
:100DDC000510851083120313051085100800F00010
:100DEC000A128A11DE260A128A11003A0319FF2E02
:100DFC00002FF62E70088312031399000800831637
:100E0C0003131815673099001812831203139817DF
:100E1C0083160313071387179816831203131816D8
:100E2C0008002C2F7208FF00710884000A128A1126
:100E3C0003200A128A110A128A11F5260A128A1143
:100E4C000130F1070318F20A0030F207720883121E
:100E5C000313FF00710884000A128A1103200A127E
:100E6C008A11003A031D3B2F3C2F182F0800F40168
:100E7C000A128A11E4260A128A11F5000D30750641
:100E8C000319492F4A2F5A2F0A30750603194F2F71
:100E9C00502F5A2F74087007F200720884007508DE
:100EAC00831380000130F4070D30750603195F2F92
:100EBC00602F782F0A3075060319652F662F782F4F
:100ECC007108FF3EF200FF3003180030F300730886
:100EDC00803A803C031D742F72087402031C772F18
:100EEC00782F3E2F74087007F20072088400831369
:100EFC00800108000A128A1105270A128A110A12A7
:100F0C008A11EC260A128A110130F1008030F200AD
:100F1C000A128A1117270A128A1183120313051455
:100F2C000B30F8002630F7005D30F600F60B9C2FE6
:100F3C00F70B9C2FF80B9C2FA32F83120313051078
:100F4C002030F0003230F1000A128A113D270A12CB
:100F5C008A118312031385140B30F8002630F70026
:100F6C005D30F600F60BB82FF70BB82FF80BB82F37
:100F7C00BF2F8312031385105130F1008030F20023
:100F8C000A128A1117270A128A112D30F1008030AB
:100F9C00F2000A128A1117270A128A115430F10032
:100FAC008030F2000A128A1117270A128A11203097
:100FBC00F1000030F2000A128A1117270A128A1166
:100FCC005130F1008030F2000A128A1117270A12F0
:100FDC008A112E30F1008030F2000A128A11172784
:100FEC000A128A118A2F0A128A11002883010A1206
:040FFC008A11802FA7
:02400E007A3FF7
:00000001FF
