:060000000A128A11FC2F18
:100F0000831203131F150800831203131F19892F5F
:100F10008A2F842F08004130831203139F008030F2
:100F2000831603139F000800831603130610861010
:100F300006118611831203130610861006118611FE
:100F40000A128A118B270A128A110A128A11802723
:100F50000A128A110A128A1184270A128A110A12A5
:100F60008A11C5270A128A110630F4001330F300E3
:100F7000AD30F200F20BBA2FF30BBA2FF40BBA2FED
:100F8000C12FA52F0A128A110028831203131E08ED
:100F9000F100831603131E08F000831203130610DA
:100FA00086100611861100307102FB3003197002A1
:100FB000031CDB2FDC2FDD2F061401307102F5300E
:100FC00003197002031CE52FE62FE72F8614023069
:100FD0007102EF3003197002031CEF2FF02FF12F75
:100FE000061503307102E93003197002031CF92F52
:100FF000FA2FFB2F8615080083010A128A11942FFD
:02400E00793FF8
:00000001FF
