:060000000A128A11E12F33
:100E38007E088A007F0882000A128A111C270A127B
:100E48008A118000840A04087D0603190034FF0A09
:100E58000319FE0A202F8316031386010714F201D3
:100E680000308312031307180130F1007108031DC5
:100E78003E2F3F2F4A2F7208203E8400831300081C
:100E880086000130FF007F08F207512F7208A03E4C
:100E98008400831300088600452F8130F000F00B92
:100EA800532F562F40307206031D5B2F5C2F342FB3
:100EB800F201342F0A128A1100280034043408344D
:100EC8000C341034143418341C34203424342834AA
:100ED8002C343034343438343C344034443448349A
:100EE8004C345034543458345C346034643468348A
:100EF8006C347034743478347C348034843488347A
:100F08008C349034943498349C34A034A434A83469
:100F1800AC34B034B434B834BC34C034C434C83459
:100F2800CC34D034D434D834DC34E034E434E83449
:100F3800EC34F034F434F834FC3480348B349634A4
:100F4800A134AB34B534BF34C734CF34D634DC34F1
:100F5800E134E534E834EB34EC34ED34EC34EB34A0
:100F6800E834E534E134DC34D634CF34C734BF3424
:100F7800B534AB34A13496348B34803475346A3448
:100F88005F3455344B344134393431342A342434C1
:100F98001F341B34183415341434133414341534F2
:100FA80018341B341F3424342A343134393441344E
:100FB8004B3455345F346A3475348313E030FD00A4
:100FC8000730FE006130FF00A03084000A128A1149
:100FD80020270A128A116030FD000730FE00A13078
:100FE800FF00203084000A128A1120270A128A1171
:080FF80083010A128A112F2F58
:02400E00793FF8
:00000001FF
