:100000000A128A1110280800FE00030EF5000408E9
:10001000F6000A08F7007F08F8000A168A110C2873
:100020000A128A111328F901FA01FB01FC01FD01F2
:100030008317C7308400CF300A128A11F8270A12BA
:100040008A111030840060300A128A11F8270A12CF
:100050008A1183010A168A11822AC01F302831288A
:100060003B283F30DB008030DA000030D900003020
:10007000D800BF01C0016730380603194028412865
:1000800047283F08BC070318BD0A4008BD07C70141
:10009000C8015708CC005608CB005508CA005408C0
:1000A000C9005B08C6005A08C5005908C4005808B2
:1000B000C3009429831603135B0883120313CB0038
:1000C000831603135A0883120313CA0083160313FB
:1000D000590883120313C9008316031358088312A7
:1000E0000313C800831603134C0883120313CF00B5
:1000F000831603134B0883120313CE0083160313D6
:100100004A0883120313CD00831603134908831290
:100110000313CC000A128A11D9250A128A118312FC
:1001200003134B08E5004A08E4004908E3004808C7
:10013000E2000A128A1579200A128A118312031327
:10014000650883160313D000831203136408831613
:100150000313CF0083120313630883160313CE0027
:1001600083120313620883160313CD005008831211
:100170000313A300831603134F0883120313A20073
:10018000831603134E0883120313A100831603136F
:100190004D0883120313A0000A128A1501200A12C7
:1001A0008A1183120313210883160313BB008312E1
:1001B0000313200883160313BA005B08831203138A
:1001C000B500831603135A0883120313B400831671
:1001D0000313590883120313B3008316031358083B
:1001E00083120313B2008316031350088312031300
:1001F000B100831603134F0883120313B000831654
:1002000003134E0883120313AF00831603134D0824
:1002100083120313AE000A128A15BB240A128A1134
:10022000831203133108CB003008CA002F08C9001D
:100230002E08C800831603134C0883120313CF0043
:10024000831603134B0883120313CE008316031384
:100250004A0883120313CD0083160313490883123F
:100260000313CC000A168A1552260A128A11831229
:1002700003134B0883160313CC00831203134A089D
:1002800083160313CB008312031349088316031349
:10029000CA0083120313480883160313C9004130B0
:1002A00083120313CB002030CA000030C900003095
:1002B000C800831603135B0883120313CF00831651
:1002C00003135A0883120313CE008316031359082D
:1002D00083120313CD0083160313580883120313EC
:1002E000CC000A128A11D9250A128A11831203132B
:1002F0004B0883160313DB00831203134A0883168B
:100300000313DA0083120313490883160313D90079
:1003100083120313480883160313D8000130C7075C
:100320000318C80A0030C8074808803A831203132C
:10033000EC00831603133D08803A831203136C020A
:10034000031DA629831603133C084702031CA92991
:10035000AA295A28403083120313B100A030B000FC
:100360000030AF000030AE00831603135B08831229
:100370000313B500831603135A0883120313B40042
:1003800083160313590883120313B3008316031350
:10039000580883120313B2000A128A15BB240A12EA
:1003A0008A1183120313310883160313D0008312BA
:1003B0000313300883160313CF00831203132F088F
:1003C00083160313CE00831203132E088316031320
:1003D000CD004C0883120313CB00831603134B0884
:1003E00083120313CA00831603134A0883120313EC
:1003F000C90083160313490883120313C800831628
:100400000313500883120313CF00831603134F08FE
:1004100083120313CE00831603134E0883120313B3
:10042000CD00831603134D0883120313CC000A1664
:100430008A1124210A128A1103181F2A202A2B2A22
:10044000003083160313D0000030CF000030CE0000
:100450000030CD00722A831603134C088312031355
:10046000A300831603134B0883120313A200831601
:1004700003134A0883120313A100831603134908C8
:1004800083120313A000831603135008831203136F
:10049000A700831603134F0883120313A6008316C5
:1004A00003134E0883120313A500831603134D088C
:1004B00083120313A4000A128A11A8270A128A11B0
:1004C000031C632A642A722A831603133A18692AC2
:1004D0006A2A722A0030D0000030CF000030CE00EF
:1004E0000030CD0083160313500883120313A300BA
:1004F000831603134F0883120313A20083160313FA
:100500004E0883120313A100831603134D088312B0
:100510000313A00083160313570883120313A700C5
:1005200083160313560883120313A60083160313BE
:10053000550883120313A50083160313540883126E
:100540000313A4000A168A11A8250A128A1183121D
:100550000313230883160313CC008312031322080A
:1005600083160313CB00831203132108831603138E
:10057000CA0083120313200883160313C9004C0812
:1005800083120313CB00831603134B088312031348
:10059000CA00831603134A0883120313C900831683
:1005A0000313490883120313C8004130B1002030FF
:1005B000B0000030AF000030AE00831603134608D1
:1005C00083120313B5008316031345088312031324
:1005D000B40083160313440883120313B300831675
:1005E0000313430883120313B2000A128A15BB24B3
:1005F0000A128A11831203133108CF003008CE008B
:100600002F08CD002E08CC000A168A1124210A12C8
:100610008A11031C0C2B0D2B602B01308316031346
:10062000BF070318C00A0030C0074130831203130C
:10063000B1002030B0000030AF000030AE008316B3
:100640000313460883120313B500831603134508EA
:1006500083120313B4008316031344088312031395
:10066000B30083160313430883120313B2000A1264
:100670008A15BB240A128A118312031331088316C8
:100680000313C60083120313300883160313C50037
:10069000831203132F0883160313C400831203135A
:1006A0002E0883160313C30066303906031D592B29
:1006B0005A2B602B0130BC070318BD0A0030BD0760
:1006C000831603134608DB004508DA004408D90006
:1006D0004308D8004008B0003F08AF00B701B3019D
:1006E000B401C701C801362D831603135B088312BA
:1006F0000313CB00831603135A0883120313CA0093
:1007000083160313590883120313C90083160313B6
:10071000580883120313C800831603134C0883126E
:100720000313CF00831603134B0883120313CE0069
:10073000831603134A0883120313CD008316031391
:10074000490883120313CC000A128A11D9250A1210
:100750008A11831203134B08E5004A08E400490894
:10076000E3004808E2000A128A1579200A128A1169
:1007700083120313650883160313D0008312031337
:10078000640883160313CF008312031363088316D0
:100790000313CE0083120313620883160313CD00E4
:1007A000500883120313A300831603134F08831208
:1007B0000313A200831603134E0883120313A10030
:1007C000831603134D0883120313A0000A128A151F
:1007D00001200A128A11831203132108803AFF00B4
:1007E00080307F02031DF62B0A3020020318F92BFC
:1007F000FA2B242C83160313500883120313A3002F
:10080000831603134F0883120313A20083160313E6
:100810004E0883120313A100831603134D0883129D
:100820000313A0000A128A1501200A128A118312EA
:100830000313210883160313BB008312031320083C
:1008400083160313BA002A2C093083160313BA0047
:100850000030BB003708031D2E2C2F2C602CB01F3E
:10086000322C332C602C5208103E84002E3083171B
:1008700080000130D2070318D30A0030D307FF30BD
:10088000C1070318C20AFF30C207B701B70A602CBC
:100890005208103E84003030831780000130D207A8
:1008A0000318D30A0030D307FF30C1070318C20A68
:1008B000FF30C207FF30B3070318B40AFF30B40794
:1008C00033083404031D652C662C482C5208103E56
:1008D00084003A08303E831780000130D2070318A5
:1008E000D30A0030D307FF30C1070318C20AFF3014
:1008F000C2075B0883120313B500831603135A085B
:1009000083120313B40083160313590883120313CD
:10091000B30083160313580883120313B20083161F
:100920000313500883120313B100831603134F08F7
:1009300083120313B000831603134E0883120313AC
:10094000AF00831603134D0883120313AE000A127F
:100950008A15BB240A128A11831203133108CB00B3
:100960003008CA002F08C9002E08C80083160313D8
:100970004C0883120313CF00831603134B08831212
:100980000313CE00831603134A0883120313CD000A
:1009900083160313490883120313CC000A168A1521
:1009A00052260A128A11831203134B08831603136B
:1009B000CC00831203134A0883160313CB0083125F
:1009C0000313490883160313CA008312031348084C
:1009D00083160313C900413083120313CB00203068
:1009E000CA000030C9000030C800831603135B083A
:1009F00083120313CF00831603135A0883120313C1
:100A0000CE0083160313590883120313CD008316F7
:100A10000313580883120313CC000A128A11D92534
:100A20000A128A11831203134B0883160313DB0087
:100A3000831203134A0883160313DA008312031385
:100A4000490883160313D900831203134808831639
:100A50000313D800FF30AF070318B00AFF30B00708
:100A60000130C7070318C80A0030C8074808803A91
:100A700083120313EC00831603133D08803A83129C
:100A800003136C02031D482D831603133C08470211
:100A900003184B2D4C2D5B2D831603135308803AFE
:100AA000FF0080307F02031D572D4B305202031C84
:100AB0005A2D5B2D742B4F3083160313C700003063
:100AC000C8004708103E840083178001103083124D
:100AD0000313A00083160313530883120313A20009
:100AE00083160313520883120313A1001030EC0085
:100AF00083160313520883120313EC0283160313A5
:100B00004708831203136C070A168A159D260A12DA
:100B10008A118316031352084702D2005308031C9C
:100B2000530A4802D3005108031D972D992D013017
:100B30009A2D003083120313EC00ED016C0883162C
:100B40000313C700831203136D0883160313C80031
:100B500051080319AC2DAD2DB92DFF30D207031864
:100B6000D30AFF30D3075208103E84005108831780
:100B700080004708C1024808031CC203C202520891
:100B8000103E83120313AF0083160313420883122F
:100B90000313B10083160313410883120313B0003B
:100BA000831603133E080A168A156C270A128A1147
:100BB0000800831203134F088039D9004F08D00072
:100BC0005007E000CE1FE52DE62DE72D60146008EC
:100BD0000319EB2DEC2DFC2D600A031DF02DF12DDA
:100BE000F92D0030CF000030CE000030CD000030B5
:100BF000CC00CE17CF01042E0030CF000030CE0045
:100C00000030CD000030CC004B088039FF007F0859
:100C1000D9064B08D0005007E100CA1F102E112E34
:100C2000122E611461080319162E172E272E610A41
:100C3000031D1B2E1C2E242E0030CB000030CA00BA
:100C40000030C9000030C800CA17CB012F2E003079
:100C5000CB000030CA000030C9000030C8004B088B
:100C60004A0449044804031D362E372E502E003006
:100C7000CF000030CE000030CD000030CC008030FE
:100C8000CE047F30CF045908FF007F08CF044F08FF
:100C9000CB004E08CA004D08C9004C08C800A72F59
:100CA0006008031D542E552E5E2E0030CB00003000
:100CB000CA000030C9000030C800A72F6008D0006B
:100CC000D1015108D30061085002D200031CD303A4
:100CD00052087F3EDA0053080318013E003EDB0055
:100CE0004F08D8004E08D7004D08D6004C08D50054
:100CF0000030CF000030CE000030CD000030CC00FE
:100D00000030DF000030DE000030DD000030DC00AD
:100D1000E101D42E610803198E2E8F2EAF2E0130E3
:100D2000D0000310D50DD60DD70DD80DD00B912EB8
:100D30000130D0000310CC0DCD0DCE0DCF0DD00B5A
:100D40009A2EDF1FA42EA52EA62E4C140130D00003
:100D50000310DC0DDD0DDE0DDF0DD00BA82E4B08D2
:100D60005802031DBD2E4A085702031DBD2E490817
:100D70005602031DBD2E48085502031CC02EC12E6D
:100D8000D02E5F174808D5024908031C490FD60228
:100D90004A08031C4A0FD7024B08031C4B0FD8020A
:100DA0000130FF007F08E1071A306102031CD92ED1
:100DB000DA2E8A2E58085704560455040319E12EDA
:100DC000E22E012F5C14012F0130D0000310CC0D56
:100DD000CD0DCE0DCF0DD00BE62EDF1FF02EF12E58
:100DE000F22E4C140130D0000310DC0DDD0DDE0DB1
:100DF000DF0DD00BF42EFF30DA070318DB0AFF30CB
:100E0000DB07CE1F042F052FE42EE101DF1F092F82
:100E10000A2F262FFF305C05D000FF305D05D10082
:100E2000FF305E05D2007F305F05D30053085204C7
:100E30005104500403191D2F1E2F212FE101E10A37
:100E4000262F4C1C242F252F262F1E2F6108031917
:100E50002A2F2B2F5C2F0130CC07003003180130D4
:100E6000CD07003003180130CE07003003180130E1
:100E7000CF074F1C3C2F3D2F5C2F4C08D0004D0856
:100E8000D1004E08D2004F08D3000130D400530DDA
:100E9000D30CD20CD10CD00CD40B472F5308CF005D
:100EA0005208CE005108CD005008CC000130DA07BE
:100EB0000318DB0A0030DB075B08803AFF00803054
:100EC0007F02031D652FFF305A02031C682F692F14
:100ED000772FFF3083120313DA000030DB0000307D
:100EE000CF000030CE000030CD000030CC008312A7
:100EF00003135B08803AFF0080307F02031D822FBE
:100F000001305A020318852F862F932F8312031363
:100F1000DA01DB010030CF000030CE000030CD0020
:100F20000030CC00D901831203135A08E000601C82
:100F30009A2F9B2F9D2FCE17A12F7F30FF007F0868
:100F4000CE056008D0000310500CCF00432E0800DF
:100F50000030831203132005A80000302105A900EA
:100F600080302205AA007F302305AB002B082A041D
:100F700029042804031DBD2FBE2FC62F0030A30057
:100F80000030A2000030A1000030A0000030240595
:100F9000A80000302505A90080302605AA007F3072
:100FA0002705AB002B082A0429042804031DD92F88
:100FB000DA2FE22F0030A7000030A6000030A50095
:100FC0000030A40027082306031DF02F2608220660
:100FD000031DF02F25082106031DF02F24082006ED
:100FE0000319F32FF42FF62F0310F72F0314080023
:100FF00064008001840A0406031900340406F92FF2
:10100200031083120313220D230DA9002908031DC7
:101012000B280C2815280030A3000030A200003055
:10102200A1000030A00078282008A4002108A50013
:101032002208A6002308A7001F300310A70CA60C45
:10104200A50CA40CFF3E031D1E282408A800A2170D
:10105200FF30A005FF30A105FF30A2050030A30537
:101062009630A902A91F3628372851282908803A24
:10107200973E03183D283E283F280C2801300310D4
:10108200A30CA20CA10CA00CFF3E031D40280130B2
:10109200FF007F08A907031D4F2850283F28682812
:1010A20020302902031C5628572863280C280130B7
:1010B200A4000310A00DA10DA20DA30DA40B5A288C
:1010C2000130A9022908031D672868285828280822
:1010D20003196C286D287828A009A109A209A3097F
:1010E200A00A0319A10A0319A20A0319A30A0800F4
:1010F200831603174A0883160313A90083160317DE
:10110200490883160313A800831603174808831699
:101112000313A70083160317470883160313A600B9
:1011220083120313650883160313A90083120313A2
:10113200640883160313A80083120313630883163B
:101142000313A70083120313620883160313A60076
:10115200260883120313E60083160313270883125B
:101162000313E70083160313280883120313E8000E
:1011720083160313290883120313E900173003109F
:10118200E90CE80CE70CE60CFF3E031DC028FF301B
:101192006605EA0000306705EB006A08813E8316A7
:1011A2000313A400831203136B080318013EFF3ECE
:1011B20083160313A5002508803AFF0080307F02C2
:1011C200031DE52817302402031CE828E928EA2831
:1011D2002B2A83160313A51BEF28F028AE29240A15
:1011E200FF00FF3083120313E600FF30E7007F3079
:1011F200E8000030E9000229690DE90CE80CE70C6F
:10120200E60CFF0BFD28690883160313A300831263
:101212000313680883160313A200831203136708DB
:1012220083160313A10083120313660883160313A4
:10123200A0002008260583120313E6008316031379
:101242002108270583120313E700831603132208DC
:10125200280583120313E8008316031323082905C4
:1012620083120313E9006908680467046604031D16
:101272003B293C293D29E9288316031326088312BA
:101282000313E60083160313270883120313E700F0
:1012920083160313280883120313E800831603132B
:1012A200290883120313E9001F300310E90CE80C2C
:1012B200E70CE60CFF3E031D562969086804670423
:1012C20066040319652966297F29831603132008FA
:1012D200A607210803110318013E03197129A70764
:1012E200220803110318013E03197829A8072308CD
:1012F20003110318013E03197F29A907831603135B
:10130200200983120313E6008316031321098312B3
:101312000313E70083160313220983120313E80061
:1013220083160313230983120313E9006608831645
:101332000313A60583120313670883160313A70575
:1013420083120313680883160313A8058312031379
:10135200690883160313A905132A260883120313A7
:10136200E60083160313270883120313E70083168C
:101372000313280883120313E800831603132908B2
:1013820083120313E9001F300310E90CE80CE70C89
:10139200E60CFF3E031DC52969086804670466045C
:1013A200031DD429D529E029003083160313A9008F
:1013B2000030A8000030A7000030A600132A8316D0
:1013C2000313260883120313E60083160313270868
:1013D20083120313E70083160313280883120313EF
:1013E200E80083160313290883120313E90001306E
:1013F2000310E60DE70DE80DE90DFF3E031DF92987
:1014020069086804670466040319082A092A132A6A
:10141200BF3083160313A9008030A8000030A70054
:101422000030A60083160313290883120313E50074
:1014320083160313280883120313E400831603138D
:10144200270883120313E30083160313260883126B
:101452000313E20008003F3083160313DB008030E1
:10146200DA000030D9000030D800BF01C0015708AF
:1014720083120313A3008316031356088312031364
:10148200A20083160313550883120313A1008316C7
:101492000313540883120313A0000030A700003086
:1014A200A6000030A5000030A4000A128A11A82765
:1014B2000A128A1503185E2A5F2A942C702A831650
:1014C20003134608DB004508DA004408D900430844
:1014D200D8000130BF070318C00A0030C0074130EE
:1014E20083120313B1002030B0000030AF0000308F
:1014F200AE00831603135B0883120313B500831631
:1015020003135A0883120313B400831603135908F2
:1015120083120313B30083160313580883120313B1
:10152200B2000A128A15BB240A128A158312031307
:10153200310883160313C60083120313300883167F
:101542000313C500831203132F0883160313C40069
:10155200831203132E0883160313C3005408831245
:101562000313EC0083160313550883120313ED00D3
:1015720083160313560883120313EE008316031314
:10158200570883120313EF008316031343088312D1
:101592000313EC02831603134408031C440FD22ADC
:1015A200D52A83120313ED02831603134508031C85
:1015B200450FDC2ADF2A83120313EE02831603137C
:1015C2004608031C460FE62AE92A83120313EF0298
:1015D20083160313831203136F08A3006E08A2007D
:1015E2006D08A1006C08A0000A168A15BB250A1214
:1015F2008A1583120313A31B0E2B2308031D0F2B23
:101602002208031D0F2B2108031D0F2B023020027D
:10161200031D0B2B031C0E2B0F2B602A83160313A7
:10162200460883120313CB00831603134508831263
:101632000313CA0083160313440883120313C90059
:1016420083160313430883120313C800831603137C
:10165200570883120313CF0083160313560883120D
:101662000313CE0083160313550883120313CD0010
:1016720083160313540883120313CC000A168A112B
:1016820024210A128A15031C472B482B602A831631
:101692000313540883120313EC0083160313550833
:1016A20083120313ED0083160313560883120313E8
:1016B200EE0083160313570883120313EF008316F9
:1016C2000313580883120313EC02831603135908F9
:1016D200031C590F6D2B702B83120313ED0283161B
:1016E20003135A08031C5A0F772B7A2B8312031306
:1016F200EE02831603135B08031C5B0F812B842B02
:1017020083120313EF0283160313831203136F086A
:10171200A3006E08A2006D08A1006C08A0000A16C2
:101722008A15BB250A128A1583120313A31BAA2B3F
:101732002308031DA92B2208031DA92B2108031D21
:10174200A92B02302002031DA62B0318A92BAA2BBA
:101752005B2C831603135B08D7005A08D60059087E
:10176200D5005808D400942C413083120313CB00C7
:101772002030CA000030C9000030C80083160313AD
:101782005B0883120313CF00831603135A088312D4
:101792000313CE0083160313590883120313CD00DB
:1017A20083160313580883120313CC000A128A11FA
:1017B200D9250A128A15831203134B0883160313C1
:1017C200DB00831203134A0883160313DA00831221
:1017D2000313490883160313D9008312031348081D
:1017E20083160313D800FF30BF070318C00AFF3067
:1017F200C007540883120313EC0083160313550821
:1018020083120313ED008316031356088312031386
:10181200EE0083160313570883120313EF00831697
:101822000313580883120313EC0283160313590897
:10183200031C590F1D2C202C83120313ED02831657
:1018420003135A08031C5A0F272C2A2C8312031342
:10185200EE02831603135B08031C5B0F312C342C3E
:1018620083120313EF0283160313831203136F0809
:10187200A3006E08A2006D08A1006C08A0000A1661
:101882008A15BB250A128A1583120313A31B5A2C2D
:101892002308031D592C2208031D592C2108031D5E
:1018A200592C02302002031D562C0318592C5A2C95
:1018B2005B2CAA2B83160313570883120313CB0046
:1018C20083160313560883120313CA0083160313E5
:1018D200550883120313C900831603135408831295
:1018E2000313C800831603135B0883120313CF008C
:1018F200831603135A0883120313CE0083160313AD
:10190200590883120313CD00831603135808831258
:101912000313CC000A168A1124210A128A15031C09
:10192200932C942CB52B831603132E08B800380879
:10193200B900FC1B9D2C9E2CA32C7C08B2007B08BA
:10194200B100A72C0630B1000030B2003208BD0051
:101952003108BC000130BC070318BD0A0030BD07C6
:1019620066303906031DB82C0A128A112D280A1274
:101972008A1147288312031331088039BB003108CA
:10198200B6003607C100B01FC72CC82CC92C4114A1
:1019920041080319CD2CCE2CDD2C410A031DD22C7B
:1019A200D32CDB2C0030B1000030B0000030AF008F
:1019B2000030AE00B017E52C0030B1000030B000AE
:1019C2000030AF000030AE0035088039FF007F08DC
:1019D200BB063508B6003607C000B41FF12CF22C46
:1019E200F32C401440080319F72CF82C072D400A59
:1019F200031DFC2CFD2C052D0030B5000030B40079
:101A02000030B3000030B200B4170F2D0030B50023
:101A12000030B4000030B3000030B20040080319B7
:101A2200132D142D192D4108031D182D192D222DAA
:101A32000030B1000030B0000030AF000030AE0026
:101A4200FF2F2E08A00034080A168A15C5260A128E
:101A52008A15831203132108C7002008C60046080E
:101A6200B600B701B801B9013908BF003808BE0095
:101A72003708BD003608BC004708B600B701B801F8
:101A8200B9013908C5003808C4003708C300360850
:101A9200C2002F08A00033080A168A15C5260A12AA
:101AA2008A15831203132108C7002008C6004608BE
:101AB200B600B701B801B9013608BC0737080311EF
:101AC2000318013E0319662DBD07380803110318D8
:101AD200013E03196D2DBE07390803110318013E9B
:101AE2000319742DBF074708B600B701B801B90141
:101AF2003608C207370803110318013E0319822D65
:101B0200C307380803110318013E0319892DC407BE
:101B1200390803110318013E0319902DC507300837
:101B2200A00032080A168A15C5260A128A158312DF
:101B320003132108C7002008C6004608B600B701F3
:101B4200B801B9013608BC07370803110318013E72
:101B52000319AC2DBD07380803110318013E031900
:101B6200B32DBE07390803110318013E0319BA2D1C
:101B7200BF074708B600B701B801B9013608C20766
:101B8200370803110318013E0319C82DC30738088B
:101B920003110318013E0319CF2DC407390803119D
:101BA2000318013E0319D62DC5070830B6000310ED
:101BB200BC0DBD0DBE0DBF0DB60BD82D2F08A0005C
:101BC20032080A168A15C5260A128A1583120313C9
:101BD2002108C7002008C6004608B6004708B7001B
:101BE200B801B9013608BC07370803110318013ED2
:101BF2000319FC2DBD07380803110318013E031910
:101C0200032EBE07390803110318013E03190A2ED9
:101C1200BF072E08A00033080A168A15C5260A1225
:101C22008A15831203132108C7002008C60046083C
:101C3200B6004708B700B801B9013608BC07370833
:101C420003110318013E0319272EBD07380803119B
:101C52000318013E03192E2EBE073908031103187B
:101C6200013E0319352EBF070830B6000310BC0D24
:101C7200BD0DBE0DBF0DB60B372E2E08A0003208CB
:101C82000A168A15C5260A128A1583120313210819
:101C9200C7002008C6004608B6004708B700B801CA
:101CA200B9013608BC07370803110318013E0319AE
:101CB2005B2EBD07380803110318013E0319622E7B
:101CC200BE07390803110318013E0319692EBF0725
:101CD2002F08A00034080A168A15C5260A128A158A
:101CE200831203132108C7002008C6004608B60065
:101CF2004708B700B801B9013608C207370803110F
:101D02000318013E0319862EC3073808031103186E
:101D1200013E03198D2EC407390803110318013E31
:101D22000319942EC5073008A00033080A168A1535
:101D3200C5260A128A15831203132108C700200838
:101D4200C6004608B6004708B700B801B901360810
:101D5200C207370803110318013E0319B12EC30746
:101D6200380803110318013E0319B82EC4073908B5
:101D720003110318013E0319BF2EC5073008A00046
:101D820034080A168A15C5260A128A158312031305
:101D92002108C7002008C6004608B6004708B70059
:101DA200B801B90108300310B60DB70DB80DB90D61
:101DB200FF3E031DD42E3608C2073708031103184D
:101DC200013E0319E52EC307380803110318013E2B
:101DD2000319EC2EC407390803110318013E031935
:101DE200F32EC5073C08B6003D08B7003E08B80010
:101DF2003F08B90018300310B90CB80CB70CB60C78
:101E0200FF3E031DFC2E3608C207370803110318D4
:101E1200013E03190D2FC307380803110318013EB1
:101E22000319142FC407390803110318013E0319BB
:101E32001B2FC5070830B6000310BC0DBD0DBE0D2B
:101E4200BF0DB60B1D2F41084007B600B701B70DF5
:101E52003608823EC60037080318013EFF3EC7001F
:101E62004F2F0130B6000310C20DC30DC40DC50DB6
:101E7200B60B342FBF1F3E2F3F2F402F421401308D
:101E8200B6000310BC0DBD0DBE0DBF0DB60B422F2B
:101E9200FF30C6070318C70AFF30C707C41F522FF7
:101EA200532F322FC001BF1F572F582F742FFF30CF
:101EB2003C05B600FF303D05B700FF303E05B800D7
:101EC2007F303F05B9003908380437043604031956
:101ED2006B2F6C2F6F2FC001C00A742F421C722F00
:101EE200732F742F6C2F40080319782F792FAA2F84
:101EF2000130C207003003180130C3070030031855
:101F02000130C407003003180130C507451C8A2F71
:101F12008B2FAA2F4208B6004308B7004408B80026
:101F22004508B9000130BA00390DB90CB80CB70C2C
:101F3200B60CBA0B952F3908C5003808C40037080B
:101F4200C3003608C2000130C6070318C70A0030B2
:101F5200C7074708803AFF0080307F02031DB32F76
:101F6200FF304602031CB62FB72FC22F7F308312D9
:101F72000313C5008030C4000030C3000030C2002B
:101F8200F32F831203134708803AFF0080307F0249
:101F9200031DCD2F013046020318D02FD12FDD2F84
:101FA200003083120313C5000030C4000030C300A8
:101FB2000030C200BB01F32F831203134608C10095
:101FC200FF30C205FF30C3057F30C4050030C505B0
:101FD200411CEC2FED2FEE2FC4174108B600031061
:101FE200360CC5003B08FF007F08C5044508B10058
:0E1FF2004408B0004308AF004208AE000800EB
:102018008B1C0F2810282E288312031388010816FA
:102028000D30F400AF30F300B630F200F20B1A288E
:10203800F30B1A28F40B1A28000083120313081252
:102048000130F0008030F1000A168A15EE260A16D3
:102058008A118B107808FF0077088A0076088400B8
:10206800750E8300FE0E7E0E090083120313AB006B
:10207800A901AA012B0884008313000884000A160A
:102088008A150A200A168A112A3A031D4C284D2857
:1020980081280130FF002B0884007F08800726086C
:1020A800840083170008FF00023080077F0884003F
:1020B80083130008A900840A0008AA0092282A08A5
:1020C800A1002908A0000A30A2000030A3000A16C7
:1020D8008A1576260A168A11831203132808200700
:1020E800A9000030031801302107AA000130FF00C1
:1020F8002B0884007F08831380072B0884000008BE
:1021080084000A168A150A200A168A11D03EA800E9
:102118000A302802031C9128922863282A08A7005D
:102128002908A6000800831603174E088312031314
:10213800AF00831603174D0883120313AE008316EE
:1021480003174C0883120313AD00831603174B08BB
:1021580083120313AC002308AF002208AE00210845
:10216800AD002008AC002C08A4002D08A5002E08FE
:10217800A6002F08A70017300310A70CA60CA50C63
:10218800A40CFF3E031DC028FF302405AA00003020
:102198002505AB002A082B04031DD328D428F728CB
:1021A8002C08A4002D08A5002E08A6002F08A700BB
:1021B80001300310A40DA50DA60DA70DFF3E031DAC
:1021C800DD282708260425042404031DEC28ED280F
:1021D800F2280230A0000030A10023290330A0001B
:1021E8000030A10023292A0A2B04031DFC28FD28FE
:1021F8001F292C08A4002D08A5002E08A6002F08CA
:10220800A70009300310A40DA50DA60DA70DFF3ECC
:10221800031D062927082604250424040319152963
:102228001729013018290030A800A9012808A000A2
:102238002908A10023290430A0000030A1000800CB
:102248000030831203134805D00000304905D1003F
:1022580080304A05D2007F304B05D3005308520422
:1022680051045004031D39293A2942290030CB0072
:102278000030CA000030C9000030C80000304C05EA
:10228800D00000304D05D10080304E05D2007F309F
:102298004F05D3005308520451045004031D552917
:1022A80056295E290030CF000030CE000030CD0026
:1022B8000030CC00CB1F6129622986290030D0006C
:1022C8000030D1000030D2008030D3004808D0025E
:1022D8004908031C490F71297229D1024A08031CB5
:1022E8004A0F77297829D2024B08031C4B0F7D2906
:1022F8007E29D3025308CB005208CA005108C900EE
:102308005008C800CF1F89298A29AE290030D0007B
:102318000030D1000030D2008030D3004C08D00209
:102328004D08031C4D0F99299A29D1024E08031C08
:102338004E0F9F29A029D2024F08031C4F0FA52931
:10234800A629D3025308CF005208CE005108CD0069
:102358005008CC008030CB068030CF064F084B02A7
:10236800031DC0294E084A02031DC0294D08490211
:10237800031DC0294C0848020318C329C429C629CB
:102388000310C7290314080083120313A8002808A0
:102398000319CF29D029E429A31FD329D429E42953
:1023A8002009AA002109AB002209AC002309AD00CD
:1023B800AA0A0319AB0A0319AC0A0319AD0AEC29D6
:1023C8002308AD002208AC002108AB002008AA00B1
:1023D8002308220421042004031DF329F429FD29DC
:1023E8000030A3000030A2000030A1000030A0009F
:1023F800812A9630A9000D2A0130FF007F08A9071D
:1024080001300310AD0CAC0CAB0CAA0CFF3E031D45
:10241800052AFE302D05031D122A132A002A2F2A09
:102428000130FF007F08A9070130AA070030031810
:102438000130AB07003003180130AC070030031837
:102448000130AD0701300310AD0CAC0CAB0CAA0C7D
:10245800FF3E031D272AFF302D05031D342A352A88
:10246800142A412A0130A9020130A4000310AA0D40
:10247800AB0DAC0DAD0DA40B3A2AAC1B442A452A72
:102488004B2A0230290203184A2A4B2A362A2918CD
:102498004E2A4F2A572AFF30AA05FF30AB057F3056
:1024A800AC05FF30AD050310A90C2908A400A5014F
:1024B800A601A70118300310A40DA50DA60DA70DA0
:1024C800FF3E031D5F2A2408AA042508AB0426083A
:1024D800AC042708AD0428080319732A742A792A3A
:1024E800A31F772A782A792AAD172D08A3002C086C
:1024F800A2002B08A1002A08A00008000A168A15C5
:10250800EF250A168A110F3083120313880033301F
:1025180083160317A000BB309F00DF309E009E0B80
:10252800932A9F0B932AA00B932A831203138801E3
:10253800333083160317A000BB309F00DF309E00A6
:102548009E0BA42A9F0BA42AA00BA42A8312031370
:102558001F151F19B02AB12AAD2A1E0883160317A2
:10256800C600831603131E0883160317C5004430DC
:1025780083120313CB007F30CA00C030C90000307B
:10258800C8004030B100A030B0000030AF000030CB
:10259800AE0083160317450883120313A0008316A1
:1025A8000317460883120313A100A201A3010030F8
:1025B8000A168A11C8210A168A11831203132308DE
:1025C800B5002208B4002108B3002008B2000A129E
:1025D8008A15BB240A168A11831203133108CF0007
:1025E8003008CE002F08CD002E08CC000A128A1120
:1025F800D9250A168A11831203134B088316031769
:10260800C400831203134A0883160317C3008312F6
:102618000313490883160317C200831203134808DB
:1026280083160317C100163083160313EB008316B5
:102638000317440883160313EF0083160317430890
:1026480083160313EE008316031742088316031339
:10265800ED0083160317410883160313EC00A1301D
:102668000A168A1531260A168A11A1308312031315
:10267800A0000130A1000A168A1518270A168A1127
:10268800872A0A128A11102883160313E4005C08AB
:1026980084008313000884000A168A150A200A1683
:1026A8008A11253A031D592B5A2B292C0130FF007A
:1026B8005C0884007F088007F901FA0103100030E4
:1026C80003180130FD00FF30FB00FF30FC005C0800
:1026D8008400000884000A168A150A200A168A113E
:1026E8002E3A031D782B792B912B0130FF005C08C3
:1026F80084007F0880075D0883120313A6008316F1
:1027080003135C080A168A1139200A168A118312E3
:1027180003132708FC002608FB00831603135C0834
:10272800840083130008E600660884000A168A15E8
:102738000A200A168A11E500AB2B0130FF007F083A
:10274800E607B62B6C30E500B62BE501B62B65081D
:102758004C3A0319A12B2A3A0319A62B0A3A031952
:10276800A12BA92B660884000A168A150A200A16C6
:102778008A11663A031DC12BC22B1F2CEF2B5D0853
:10278800840083170008FF00043080077F08840056
:1027980083130008E000840A0008E100840A0008A6
:1027A800E200840A0008E300F72B5D088400831721
:1027B8000008FF00043080077F08840083130008A6
:1027C800E000840A0008E100840A0008E200840AA4
:1027D8000008E300F72B65084C3A0319D92B203A77
:1027E8000319C32BF72B5C0884006608013E8000A0
:1027F800142C6308AD006208AC006108AB006008E7
:10280800AA00660884000A168A150A200A168A1180
:10281800AE0064080A168A114B240A168A114A2C3B
:10282800660884000A168A150A200A168A11663A6A
:102838000319FD2B1F2C0130FF00831603135C08BE
:1028480084007F08831380074A2C5C0884000008F2
:1028580084000A168A150A200A168A11DE00DF018A
:102868005E0883120313A000831603135F08831204
:102878000313A10083160313640883120313A20031
:102888000A168A15A6270A168A111F2C080083160D
:102898000313BE00D1012D08D7002C08D6002B0841
:1028A800D5002A08D400570883120313CB008316D7
:1028B8000313560883120313CA008316031355081B
:1028C80083120313C90083160313540883120313D6
:1028D800C8000030CF000030CE000030CD000030FE
:1028E800CC000A168A1124210A168A1103187D2C95
:1028F8007E2CB52C83160313D101D10A57088312F5
:102908000313A30083160313560883120313A200AC
:1029180083160313550883120313A10083160313A8
:10292800540883120313A0000A168A15AE250A1646
:102938008A1183120313230883160313D700831203
:102948000313220883160313D600831203132108E6
:1029580083160313D5008312031320088316031369
:10296800D40083160313D201D3017A08C200790870
:10297800C10051080319C12CC22CD22C5108031DC7
:10298800C62CC72CCC2C2B30B5000030B600D02C70
:102998002D30B5000030B6003508D1005708831235
:1029A8000313A30083160313560883120313A2000C
:1029B80083160313550883120313A1008316031308
:1029C800540883120313A0000A168A1197200A16C6
:1029D8008A118312031320032104031DF42CF52C00
:1029E8003C2D8316031351080319FB2CFC2C0C2DCA
:1029F8005108831203179000FF3083160313C10791
:102A08000318C20AFF30C2070130D2000030D300D9
:102A1800283083120313A000831603135208103EB4
:102A28000A168A15D2250A168A11FD308316031351
:102A3800C1070318C20AFF30C207103083120313FC
:102A4800AF0083160313420883120313B1008316E1
:102A58000313410883120313B000831603133E08BF
:102A68000A168A156C270A168A110A128A11D82D95
:102A780083160313570883120313A3008316031343
:102A8800560883120313A2008316031355088312F2
:102A98000313A10083160313540883120313A00021
:102AA8000A168A1197200A168A118312031320081E
:102AB8002104031D602D632D0A128A152C2A831602
:102AC800031351080319692D6A2D7A2D51088312B1
:102AD80003179000FF3083160313C1070318C20AB7
:102AE800FF30C2070130D2000030D3002C308312EF
:102AF8000313A000831603135208103E0A168A1502
:102B0800D2250A168A11FD3083160313C10703184C
:102B1800C20AFF30C207103083120313AF008316B6
:102B28000313420883120313B100831603134108E9
:102B380083120313B000831603133E080A168A157E
:102B48006C270A168A11392D83120313230880393A
:102B5800B0002308A8002807B200A21FB42DB52D85
:102B6800B62D321432080319BA2DBB2DCB2D320ADB
:102B7800031DBF2DC02DC82D0030A3000030A200BA
:102B88000030A1000030A000A217A301D32D00300F
:102B9800A3000030A2000030A1000030A0002708E8
:102BA8008039B100310830060319DB2DDC2DDD2D0D
:102BB80030172708A8002807B100A61FE42DE52D27
:102BC800E62D311431080319EA2DEB2DFB2D310ABE
:102BD800031DEF2DF02DF82D0030A7000030A600C2
:102BE8000030A5000030A400A617A701032E00306E
:102BF800A7000030A6000030A5000030A40032086D
:102C080031020318082E092E2F2E301F0C2E0D2EE0
:102C1800112E8030FF007F08B0063208B30031085B
:102C2800B2003308B1002008B3002408A00033081C
:102C3800A4002108B3002508A1003308A500220834
:102C4800B3002608A2003308A6002308B30027080B
:102C5800A3003308A700B3013108A800A901290877
:102C6800AB0032082802AA00031CAB032B08803AE9
:102C7800FF0080307F02031D432E1A302A02031CF6
:102C8800462E472E7E2E8312031323082204210486
:102C98002004031D502E522E0130532E0030B30055
:102CA8000030A3000030A2000030A1000030A000D6
:102CB8003108B200862E331C622E632E6A2E33082A
:102CC800A8000310280C0138B3006C2E0310B30CB5
:102CD800201C6F2E702E712EB3170130A800230D03
:102CE800A30CA20CA10CA00CA80B732E0130FF00A2
:102CF8007F08B2078312031331083202031C852EA2
:102D0800862E5F2E301B892E8A2ED32E3208031D65
:102D18008E2E8F2E982E0030A3000030A200003097
:102D2800A1000030A000FF2F2408A00725080311E8
:102D38000318013E0319A12EA10726080311031841
:102D4800013E0319A82EA207270803110318013E04
:102D58000319AF2EA307231CB22EB32E872F331CC3
:102D6800B62EB72EBE2E3308A8000310280C013843
:102D7800B300C02E0310B30C201CC32EC42EC52EC6
:102D8800B3170130A800230DA30CA20CA10CA00CB2
:102D9800A80BC72E0130FF007F08B207872F230832
:102DA800803AFF002708803A7F02031DE52E260897
:102DB8002202031DE52E25082102031DE52E240805
:102DC80020020318E82EE92E412FFF30A800FF301B
:102DD800A900FF30AA00FF30AB002408AC0025088A
:102DE800AD002608AE002708AF002008AC02210875
:102DF800031C210F002F012FAD022208031C220FF4
:102E0800062F072FAE022308031C230F0C2F0D2FAC
:102E1800AF022C08A8072D0803182D0F142F152F03
:102E2800A9072E0803182E0F1A2F1B2FAA072F08E1
:102E380003182F0AAB072B08A3002A08A2002908A9
:102E4800A1002808A0008030FF007F08B006B30961
:102E5800B30A3308031D312F322F4F2F0130A0073B
:102E6800003003180130A107003003180130A20711
:102E7800003003180130A3074F2F2408A0022508AB
:102E8800031C250FA1022608031C260FA2022708EF
:102E9800031C270FA3022308220421042004031D76
:102EA800562F572F832F3308031D5B2F5C2F832F3B
:102EB8000030A3000030A2000030A1000030A000C4
:102EC800FF2F0130A8000310A00DA10DA20DA30D26
:102ED800A80B672FB31F712F722F732F2014331C69
:102EE800762F772F7A2F0314B30D7C2F0310B30D91
:102EF80032080319802F812F832F0130B202A21FBD
:102F0800862F872F652FB101B31F8B2F8C2F9A2FF8
:102F180033087F390319912F922F952FB101B10AE8
:102F28009A2F201C982F992F9A2F922F3108031926
:102F38009E2F9F2FD32F0130A00700300318013098
:102F4800A107003003180130A20700300318013030
:102F5800A307231CB02FB12FD32F2008A8002108C6
:102F6800A9002208AA002308AB000130AC002B0DF1
:102F7800AB0CAA0CA90CA80CAC0BBB2F2B08A300FC
:102F88002A08A2002908A1002808A000320A03196B
:102F9800CE2FCF2FD32F0130FF007F08B207320A80
:102FA8000319D72FD82FDD2F3208031DDC2FDD2F73
:102FB800EB2F0030A3000030A2000030A100003049
:102FC800A0003208031DE92FEA2FEB2FB001321CB5
:102FD800EE2FEF2FF12FA217F52F7F30FF007F087C
:102FE800A2053208A8000310280CA300B01FFD2F6B
:102FF800FE2FFF2FA3170800FF1B0A2883137F1833
:1030080083170008840A0319FF0A080018308A0089
:103018000408840A8207003449346E3474346534F1
:1030280072347234753470347434203465347834BE
:103038006534633475347434653464340D340A3457
:10304800003456346F346C34743461346734653406
:103058003A34203425342E3432346634203456340D
:103068000D340A34003469346E34663400346E34F6
:0630780061346E340034E7
:103B5C008312031323082204210420040319B72D14
:103B6C00B82DBA2D8030A306080083120313A31BB3
:103B7C00C02DC12DC22DD12D2009A0002109A100DD
:103B8C002209A2002309A300A00A0319A10A031900
:103B9C00A20A0319A30A080083120313A200220825
:103BAC00A1000130A007FF30200784000A168A15F7
:103BBC000A200A168A15FF00210884000130A1078B
:103BCC007F08831780000008031DED2DEE2DD72DE7
:103BDC00080083160313880101308500013086002C
:103BEC004130831203139F008E30831603139F0002
:103BFC001812181581309900831203139817831625
:103C0C00031398168B170B170B160117831203133C
:103C1C008801080083160313E9006708EA00202EC8
:103C2C00EA30DC006808DD0069080A168A114823AE
:103C3C000A168A15831603136A0884000A168A1555
:103C4C000A200A168A15003A031D2D2E2E2E162E2A
:103C5C00E701E8010800831603179100EC3092008D
:103C6C0011089300950196019C019D018316031385
:103C7C006B08E7009230E80093300A168A1510267C
:103C8C000A168A15831603171508110790001008D9
:103C9C008400831780010800803083120313CB0645
:103CAC004F08A3004E08A2004D08A1004C08A0002C
:103CBC004B08A7004A08A6004908A5004808A4001C
:103CCC000A168A11A8250A168A15831203132308CB
:103CDC00CB002208CA002108C9002008C80008002F
:103CEC0083120313A401A501201C7D2E7E2E842E8D
:103CFC002208A4070318A50A2308A50701300310FE
:103D0C00A20DA30DFF3E031D852E01300310A10C47
:103D1C00A00CFF3E031D8C2E20082104031D972EA2
:103D2C00982E7A2E2508A1002408A00008008312E2
:103D3C000313A4002008A6002408A500B62E26080C
:103D4C00840083170008A3000130FF007F08A6073A
:103D5C0025088400230880000130FF007F08A50798
:103D6C000130A1020030031CA203A202210A031D90
:103D7C00C32E220A031DC32EC42EA52E08008312A7
:103D8C000313A800A401A5012008A200A301220886
:103D9C00A6002308A700281CD42ED52EDB2E26081F
:103DAC00A4070318A50A2708A50701300310A60DC0
:103DBC00A70DFF3E031DDC2E0310A80C2808031DC5
:103DCC00E82EE92ED12E2508A1002408A000080019
:103DDC00072F83160313981CF42EF52EEF2E710863
:103DEC0083120313FF00700884000A168A15002042
:103DFC000A168A1599000130F0070318F10A0030F1
:103E0C00F107710883120313FF00700884000A166F
:103E1C008A1500200A168A15003A031D162F172F33
:103E2C00EF2E0800312F83160313981C1E2F1F2F03
:103E3C00192F831203132108FF00200884000A168F
:103E4C008A1500200A168A1599000130A00703185C
:103E5C00A10A0030A107831203132108FF002008D8
:103E6C0084000A168A1500200A168A15003A031DCA
:103E7C00402F412F192F080083120313AE00AC0101
:103E8C00AD015E2F2B08A900AA012908A0002A0861
:103E9C00A1002808A2000A168A15A6270A168A1558
:103EAC00013083120313AC070318AD0A0030AD07C1
:103EBC002C082E07A9002908840083170008AB00E2
:103ECC002B08031D6A2F6B2F482F08008312031336
:103EDC00B500B11F722F732F752FB001B101B30153
:103EEC00B4018D2F203083120313A0000030A100E9
:103EFC003508A2000A168A15A6270A168A1501305B
:103F0C0083120313B3070318B40A0030B407340840
:103F1C00803AB2003108803A3202031D972F3008E4
:103F2C003302031C9A2F9B2F782F8312031335080F
:103F3C00A8002F080A168A1542270A168A150800A7
:103F4C008312031322080319AC2FAD2FB22F2208B2
:103F5C00031DB12FB22FB92F20080A128A1103208A
:103F6C000A168A15FF2F2208093E840083170008C1
:103F7C00A300840A0008A400230824040319C72FF3
:103F8C00C82FE62F2208093E84000008A300840AEB
:103F9C000008A4002208023E84000008A500840A40
:103FAC000008A6002608803AA7002408803A2702B9
:103FBC00031DE22F230825020318E52FE62FFF2F00
:103FCC00831203132208023E840083170008A30007
:103FDC002208840000082307A40024088400200879
:103FEC0080002208023E840001308007840A0318F6
:043FFC00800A08002F
:02400E00723FFF
:00000001FF
