:060000000A128A110C280F
:10000800FE00030EF0000A08F1000A128A112928DE
:100018000A128A110F2883010A128A113B288312B7
:1000280003138E018F011012901290101014423099
:1000380096003F30950017149714171197158316DB
:1000480003130C150B178B170800831203130C1DD1
:100058002E282F283428103087060C118E018F0186
:1000680071088A00700E8300FE0E7E0E090083164A
:10007800031307128312031307120A128A1113209B
:0C0088000A128A1146280A128A110C285C
:02400E00793FF8
:00000001FF
