:060000000A128A110C280F
:10000800FE00030EF0000A08F1000A128A111328F4
:100018000A128A110F2883010A128A11552883129D
:1000280003138C1D18281928342883160313941ACF
:100038001E281F283028141D222823283028831220
:1000480003131308F200060893001416831603130B
:1000580014182F2830282A288312031314168C11F9
:1000680071088A00700E8300FE0E7E0E0900F300F0
:10007800730883160313930080309400363083127C
:100088000313940001308316031391008715071694
:100098008B170B17831203138C11831603138C15FC
:1000A8000800FF30831603138600811340300A12BC
:1000B8008A113B200A128A1160280A128A110C2818
:02400E007A3FF7
:00000001FF
