:060000000A128A110C280F
:10000800FE00030EF0000A08F1000A128A112C28DB
:100018000A128A110F28F20183010A128A113C2858
:1000280083120313141094101415941194161412B7
:1000380083160313141394138712071687159F1139
:100048001F159F101F1085168C150B178B1708008E
:10005800831203138C1D3128322835281308F20027
:100068008C1171088A00700E8300FE0E7E0E090046
:100078000A128A1114200A128A11831603138601A0
:0E00880072088312860044280A128A110C287E
:02400E00793FF8
:00000001FF
