:060000000A128A11FC2F18
:100F1A00F200720883120313950070089B00080000
:100F2A00FF308316031392008312031312109210D8
:100F3A001215971517150800831603130710871043
:100F4A0007110A128A1195270A128A11F501F60168
:100F5A00F001F10175080A128A118D270A128A1105
:100F6A000D30F400FB30F300F30BB92FF40BB92F5B
:100F7A00BE2F0130F5070318F60A0030F607760887
:100F8A00803AFF0081307F02031DCD2F00307502A9
:100F9A00031CD02FD12FAD2FF701F8017708F000ED
:100FAA00F10100300A128A118D270A128A110D30B6
:100FBA00F400FB30F300F30BE02FF40BE02FE52FE6
:100FCA000130F7070318F80A0030F8077808803A62
:100FDA00FF0081307F02031DF42F00307702031CCB
:100FEA00F72FF82FD32FAB2F0A128A11002883016B
:060FFA000A128A11A12F6A
:02400E00793FF8
:00000001FF
