:060000000A128A11FC2F18
:100F1600F0007008831203178D00831603178C13D5
:100F26000C14831203170C080800F100831603172C
:100F36008C189E2F9F2F992F7108831203178D00EF
:100F460070088C00831603178C130C158B13553001
:100F56008D00AA308D008C148B170C1108000630FA
:100F6600831603139F0086018801FF3085008312D4
:100F760003138601880105300A128A118B270A128B
:100F86008A11831203138800013083120313860724
:100F96008230F300DD30F200F20BCF2FF30BCF2FB0
:100FA600D42F83120313051DD92FDA2FC72F060856
:100FB600F00005300A128A1198270A128A110530A4
:100FC6000A128A118B270A128A11831203138800C8
:100FD6000519EE2FEF2FEB2F1A30F300F830F20041
:100FE600F20BF32FF30BF32F0000C72F0A128A110F
:0A0FF600002883010A128A11B22FAD
:02400E00713F00
:00000001FF
