:060000000A128A11FC2F18
:100F7400F301F401CB2FC730F200C02FF20BBF2FC7
:100F8400C32FC42F64000130F3070318F40A0030A0
:100F9400F40771087402031DD12F70087302031C37
:100FA400D42FD52FBD2F08008316031381110108F8
:100FB400F8390438810086010F3083120313860048
:100FC400E830F0000330F1000A128A11BA270A123D
:100FD4008A11F030831203138600E830F0000330E6
:100FE400F1000A128A11BA270A128A11DE2F0A1294
:0C0FF4008A11002883010A128A11D62FEE
:02400E007D3FF4
:00000001FF
