:060000000A128A110C280F
:10000800FE00030EF0000A08F1000A128A113E28C9
:100018000A128A110F28F40183010A128A1114287E
:10002800831603138711831203138711831603138F
:100038008601831203138601831603138801831232
:10004800031388018E018F011012901290149015DD
:1000580010111014171497101715971183160313FE
:100068000C150B178B1783120E08880037280A12F5
:100078008A110C28831203130C1D43284428542882
:100088001608F3001508F200093072067304031D00
:100098004E284F28512808308706720886000C1110
:0E00A80071088A00700E8300FE0E7E0E0900A5
:02400E00793FF8
:00000001FF
